{
  "_format": "hh-sol-artifact-1",
  "contractName": "DevToken",
  "sourceName": "Ethereum/sources/ERC20.sol",
  "abi": [
    {
      "inputs": [
        {
          "internalType": "uint256",
          "name": "_initialAmount",
          "type": "uint256"
        },
        {
          "internalType": "string",
          "name": "_tokenName",
          "type": "string"
        },
        {
          "internalType": "uint8",
          "name": "_decimalUnits",
          "type": "uint8"
        },
        {
          "internalType": "string",
          "name": "_tokenSymbol",
          "type": "string"
        }
      ],
      "stateMutability": "nonpayable",
      "type": "constructor"
    },
    {
      "anonymous": false,
      "inputs": [
        {
          "indexed": true,
          "internalType": "address",
          "name": "_owner",
          "type": "address"
        },
        {
          "indexed": true,
          "internalType": "address",
          "name": "_spender",
          "type": "address"
        },
        {
          "indexed": false,
          "internalType": "uint256",
          "name": "_value",
          "type": "uint256"
        }
      ],
      "name": "Approval",
      "type": "event"
    },
    {
      "anonymous": false,
      "inputs": [
        {
          "indexed": true,
          "internalType": "address",
          "name": "_recipient",
          "type": "address"
        },
        {
          "indexed": false,
          "internalType": "uint256",
          "name": "_value",
          "type": "uint256"
        }
      ],
      "name": "Mint",
      "type": "event"
    },
    {
      "anonymous": false,
      "inputs": [
        {
          "indexed": true,
          "internalType": "address",
          "name": "_from",
          "type": "address"
        },
        {
          "indexed": true,
          "internalType": "address",
          "name": "_to",
          "type": "address"
        },
        {
          "indexed": false,
          "internalType": "uint256",
          "name": "_value",
          "type": "uint256"
        }
      ],
      "name": "Transfer",
      "type": "event"
    },
    {
      "inputs": [
        {
          "internalType": "address",
          "name": "_owner",
          "type": "address"
        },
        {
          "internalType": "address",
          "name": "_spender",
          "type": "address"
        }
      ],
      "name": "allowance",
      "outputs": [
        {
          "internalType": "uint256",
          "name": "remaining",
          "type": "uint256"
        }
      ],
      "stateMutability": "view",
      "type": "function"
    },
    {
      "inputs": [
        {
          "internalType": "address",
          "name": "",
          "type": "address"
        },
        {
          "internalType": "address",
          "name": "",
          "type": "address"
        }
      ],
      "name": "allowed",
      "outputs": [
        {
          "internalType": "uint256",
          "name": "",
          "type": "uint256"
        }
      ],
      "stateMutability": "view",
      "type": "function"
    },
    {
      "inputs": [
        {
          "internalType": "address",
          "name": "_spender",
          "type": "address"
        },
        {
          "internalType": "uint256",
          "name": "_value",
          "type": "uint256"
        }
      ],
      "name": "approve",
      "outputs": [
        {
          "internalType": "bool",
          "name": "success",
          "type": "bool"
        }
      ],
      "stateMutability": "nonpayable",
      "type": "function"
    },
    {
      "inputs": [
        {
          "internalType": "address",
          "name": "_owner",
          "type": "address"
        }
      ],
      "name": "balanceOf",
      "outputs": [
        {
          "internalType": "uint256",
          "name": "balance",
          "type": "uint256"
        }
      ],
      "stateMutability": "view",
      "type": "function"
    },
    {
      "inputs": [
        {
          "internalType": "address",
          "name": "",
          "type": "address"
        }
      ],
      "name": "balances",
      "outputs": [
        {
          "internalType": "uint256",
          "name": "",
          "type": "uint256"
        }
      ],
      "stateMutability": "view",
      "type": "function"
    },
    {
      "inputs": [],
      "name": "decimals",
      "outputs": [
        {
          "internalType": "uint8",
          "name": "",
          "type": "uint8"
        }
      ],
      "stateMutability": "view",
      "type": "function"
    },
    {
      "inputs": [
        {
          "internalType": "address",
          "name": "_recipient",
          "type": "address"
        },
        {
          "internalType": "uint256",
          "name": "_value",
          "type": "uint256"
        }
      ],
      "name": "mint",
      "outputs": [
        {
          "internalType": "bool",
          "name": "success",
          "type": "bool"
        }
      ],
      "stateMutability": "nonpayable",
      "type": "function"
    },
    {
      "inputs": [],
      "name": "name",
      "outputs": [
        {
          "internalType": "string",
          "name": "",
          "type": "string"
        }
      ],
      "stateMutability": "view",
      "type": "function"
    },
    {
      "inputs": [],
      "name": "symbol",
      "outputs": [
        {
          "internalType": "string",
          "name": "",
          "type": "string"
        }
      ],
      "stateMutability": "view",
      "type": "function"
    },
    {
      "inputs": [],
      "name": "totalSupply",
      "outputs": [
        {
          "internalType": "uint256",
          "name": "",
          "type": "uint256"
        }
      ],
      "stateMutability": "view",
      "type": "function"
    },
    {
      "inputs": [
        {
          "internalType": "address",
          "name": "_to",
          "type": "address"
        },
        {
          "internalType": "uint256",
          "name": "_value",
          "type": "uint256"
        }
      ],
      "name": "transfer",
      "outputs": [
        {
          "internalType": "bool",
          "name": "success",
          "type": "bool"
        }
      ],
      "stateMutability": "nonpayable",
      "type": "function"
    },
    {
      "inputs": [
        {
          "internalType": "address",
          "name": "_from",
          "type": "address"
        },
        {
          "internalType": "address",
          "name": "_to",
          "type": "address"
        },
        {
          "internalType": "uint256",
          "name": "_value",
          "type": "uint256"
        }
      ],
      "name": "transferFrom",
      "outputs": [
        {
          "internalType": "bool",
          "name": "success",
          "type": "bool"
        }
      ],
      "stateMutability": "nonpayable",
      "type": "function"
    }
  ],
  "bytecode": "0x608060405234801561001057600080fd5b50604051610bd3380380610bd38339818101604052608081101561003357600080fd5b81516020830180516040519294929383019291908464010000000082111561005a57600080fd5b90830190602082018581111561006f57600080fd5b825164010000000081118282018810171561008957600080fd5b82525081516020918201929091019080838360005b838110156100b657818101518382015260200161009e565b50505050905090810190601f1680156100e35780820380516001836020036101000a031916815260200191505b5060408181526020830151920180519294919391928464010000000082111561010b57600080fd5b90830190602082018581111561012057600080fd5b825164010000000081118282018810171561013a57600080fd5b82525081516020918201929091019080838360005b8381101561016757818101518382015260200161014f565b50505050905090810190601f1680156101945780820380516001836020036101000a031916815260200191505b5060409081523360009081526020818152919020889055600288905586516101c594506003935090870191506101f2565b506004805460ff191660ff841617905580516101e89060059060208401906101f2565b5050505050610285565b828054600181600116156101000203166002900490600052602060002090601f016020900481019282601f1061023357805160ff1916838001178555610260565b82800160010185558215610260579182015b82811115610260578251825591602001919060010190610245565b5061026c929150610270565b5090565b5b8082111561026c5760008155600101610271565b61093f806102946000396000f3fe608060405234801561001057600080fd5b50600436106100d45760003560e01c806340c10f191161008157806395d89b411161005b57806395d89b41146102f8578063a9059cbb14610300578063dd62ed3e14610339576100d4565b806340c10f19146102515780635c6581651461028a57806370a08231146102c5576100d4565b806323b872dd116100b257806323b872dd146101bd57806327e235e314610200578063313ce56714610233576100d4565b806306fdde03146100d9578063095ea7b31461015657806318160ddd146101a3575b600080fd5b6100e1610374565b6040805160208082528351818301528351919283929083019185019080838360005b8381101561011b578181015183820152602001610103565b50505050905090810190601f1680156101485780820380516001836020036101000a031916815260200191505b509250505060405180910390f35b61018f6004803603604081101561016c57600080fd5b5073ffffffffffffffffffffffffffffffffffffffff8135169060200135610420565b604080519115158252519081900360200190f35b6101ab610493565b60408051918252519081900360200190f35b61018f600480360360608110156101d357600080fd5b5073ffffffffffffffffffffffffffffffffffffffff813581169160208101359091169060400135610499565b6101ab6004803603602081101561021657600080fd5b503573ffffffffffffffffffffffffffffffffffffffff16610645565b61023b610657565b6040805160ff9092168252519081900360200190f35b61018f6004803603604081101561026757600080fd5b5073ffffffffffffffffffffffffffffffffffffffff8135169060200135610660565b6101ab600480360360408110156102a057600080fd5b5073ffffffffffffffffffffffffffffffffffffffff813581169160200135166106ca565b6101ab600480360360208110156102db57600080fd5b503573ffffffffffffffffffffffffffffffffffffffff166106e7565b6100e161070f565b61018f6004803603604081101561031657600080fd5b5073ffffffffffffffffffffffffffffffffffffffff8135169060200135610788565b6101ab6004803603604081101561034f57600080fd5b5073ffffffffffffffffffffffffffffffffffffffff81358116916020013516610869565b6003805460408051602060026001851615610100027fffffffffffffffffffffffffffffffffffffffffffffffffffffffffffffffff0190941693909304601f810184900484028201840190925281815292918301828280156104185780601f106103ed57610100808354040283529160200191610418565b820191906000526020600020905b8154815290600101906020018083116103fb57829003601f168201915b505050505081565b33600081815260016020908152604080832073ffffffffffffffffffffffffffffffffffffffff8716808552908352818420869055815186815291519394909390927f8c5be1e5ebec7d5bd14f71427d1e84f3dd0314c0f7b2291e5b200ac8c7c3b925928290030190a350600192915050565b60025481565b73ffffffffffffffffffffffffffffffffffffffff831660008181526001602090815260408083203384528252808320549383529082905281205490919083118015906104e65750828110155b61053b576040517f08c379a00000000000000000000000000000000000000000000000000000000081526004018080602001828103825260398152602001806108d16039913960400191505060405180910390fd5b73ffffffffffffffffffffffffffffffffffffffff808516600090815260208190526040808220805487019055918716815220805484900390557fffffffffffffffffffffffffffffffffffffffffffffffffffffffffffffffff8110156105d55773ffffffffffffffffffffffffffffffffffffffff851660009081526001602090815260408083203384529091529020805484900390555b8373ffffffffffffffffffffffffffffffffffffffff168573ffffffffffffffffffffffffffffffffffffffff167fddf252ad1be2c89b69c2b068fc378daa952ba7f163c4a11628f55a4df523b3ef856040518082815260200191505060405180910390a3506001949350505050565b60006020819052908152604090205481565b60045460ff1681565b73ffffffffffffffffffffffffffffffffffffffff8216600081815260208181526040808320805486019055805185815290519293927f0f6798a560793a54c3bcfe86a93cde1e73087d944c0ea20544137d4121396885929181900390910190a250600192915050565b600160209081526000928352604080842090915290825290205481565b73ffffffffffffffffffffffffffffffffffffffff1660009081526020819052604090205490565b6005805460408051602060026001851615610100027fffffffffffffffffffffffffffffffffffffffffffffffffffffffffffffffff0190941693909304601f810184900484028201840190925281815292918301828280156104185780601f106103ed57610100808354040283529160200191610418565b336000908152602081905260408120548211156107f0576040517f08c379a000000000000000000000000000000000000000000000000000000000815260040180806020018281038252602f8152602001806108a2602f913960400191505060405180910390fd5b336000818152602081815260408083208054879003905573ffffffffffffffffffffffffffffffffffffffff871680845292819020805487019055805186815290519293927fddf252ad1be2c89b69c2b068fc378daa952ba7f163c4a11628f55a4df523b3ef929181900390910190a350600192915050565b73ffffffffffffffffffffffffffffffffffffffff91821660009081526001602090815260408083209390941682529190915220549056fe746f6b656e2062616c616e6365206973206c6f776572207468616e207468652076616c756520726571756573746564746f6b656e2062616c616e6365206f7220616c6c6f77616e6365206973206c6f776572207468616e20616d6f756e7420726571756573746564a26469706673582212202affb77a38e547ca9ceae540bdaba4d802634921d86867a8cc7a2f202389023064736f6c63430007030033",
  "linkReferences": {},
  "deployedLinkReferences": {}
}